{
  "contractName": "DigipharmToken",
  "abi": [
    {
      "constant": true,
      "inputs": [],
      "name": "mintingFinished",
      "outputs": [
        {
          "name": "",
          "type": "bool"
        }
      ],
      "payable": false,
      "stateMutability": "view",
      "type": "function"
    },
    {
      "constant": true,
      "inputs": [],
      "name": "name",
      "outputs": [
        {
          "name": "",
          "type": "string"
        }
      ],
      "payable": false,
      "stateMutability": "view",
      "type": "function"
    },
    {
      "constant": false,
      "inputs": [
        {
          "name": "_spender",
          "type": "address"
        },
        {
          "name": "_value",
          "type": "uint256"
        }
      ],
      "name": "approve",
      "outputs": [
        {
          "name": "",
          "type": "bool"
        }
      ],
      "payable": false,
      "stateMutability": "nonpayable",
      "type": "function"
    },
    {
      "constant": true,
      "inputs": [],
      "name": "totalSupply",
      "outputs": [
        {
          "name": "",
          "type": "uint256"
        }
      ],
      "payable": false,
      "stateMutability": "view",
      "type": "function"
    },
    {
      "constant": true,
      "inputs": [],
      "name": "decimals",
      "outputs": [
        {
          "name": "",
          "type": "uint256"
        }
      ],
      "payable": false,
      "stateMutability": "view",
      "type": "function"
    },
    {
      "constant": true,
      "inputs": [],
      "name": "MAX_TOTAL_SUPPLY",
      "outputs": [
        {
          "name": "",
          "type": "uint256"
        }
      ],
      "payable": false,
      "stateMutability": "view",
      "type": "function"
    },
    {
      "constant": false,
      "inputs": [
        {
          "name": "_spender",
          "type": "address"
        },
        {
          "name": "_subtractedValue",
          "type": "uint256"
        }
      ],
      "name": "decreaseApproval",
      "outputs": [
        {
          "name": "",
          "type": "bool"
        }
      ],
      "payable": false,
      "stateMutability": "nonpayable",
      "type": "function"
    },
    {
      "constant": true,
      "inputs": [
        {
          "name": "_owner",
          "type": "address"
        }
      ],
      "name": "balanceOf",
      "outputs": [
        {
          "name": "balance",
          "type": "uint256"
        }
      ],
      "payable": false,
      "stateMutability": "view",
      "type": "function"
    },
    {
      "constant": true,
      "inputs": [],
      "name": "TRANSFERS_ALLOWED",
      "outputs": [
        {
          "name": "",
          "type": "bool"
        }
      ],
      "payable": false,
      "stateMutability": "view",
      "type": "function"
    },
    {
      "constant": false,
      "inputs": [],
      "name": "finishMinting",
      "outputs": [
        {
          "name": "",
          "type": "bool"
        }
      ],
      "payable": false,
      "stateMutability": "nonpayable",
      "type": "function"
    },
    {
      "constant": true,
      "inputs": [],
      "name": "owner",
      "outputs": [
        {
          "name": "",
          "type": "address"
        }
      ],
      "payable": false,
      "stateMutability": "view",
      "type": "function"
    },
    {
      "constant": true,
      "inputs": [],
      "name": "symbol",
      "outputs": [
        {
          "name": "",
          "type": "string"
        }
      ],
      "payable": false,
      "stateMutability": "view",
      "type": "function"
    },
    {
      "constant": false,
      "inputs": [
        {
          "name": "_spender",
          "type": "address"
        },
        {
          "name": "_addedValue",
          "type": "uint256"
        }
      ],
      "name": "increaseApproval",
      "outputs": [
        {
          "name": "",
          "type": "bool"
        }
      ],
      "payable": false,
      "stateMutability": "nonpayable",
      "type": "function"
    },
    {
      "constant": true,
      "inputs": [
        {
          "name": "_owner",
          "type": "address"
        },
        {
          "name": "_spender",
          "type": "address"
        }
      ],
      "name": "allowance",
      "outputs": [
        {
          "name": "",
          "type": "uint256"
        }
      ],
      "payable": false,
      "stateMutability": "view",
      "type": "function"
    },
    {
      "constant": false,
      "inputs": [
        {
          "name": "newOwner",
          "type": "address"
        }
      ],
      "name": "transferOwnership",
      "outputs": [],
      "payable": false,
      "stateMutability": "nonpayable",
      "type": "function"
    },
    {
      "constant": true,
      "inputs": [
        {
          "name": "",
          "type": "uint256"
        }
      ],
      "name": "locks",
      "outputs": [
        {
          "name": "TIME",
          "type": "uint256"
        },
        {
          "name": "ADDRESS",
          "type": "address"
        },
        {
          "name": "AMOUNT",
          "type": "uint256"
        }
      ],
      "payable": false,
      "stateMutability": "view",
      "type": "function"
    },
    {
      "anonymous": false,
      "inputs": [
        {
          "indexed": true,
          "name": "burner",
          "type": "address"
        },
        {
          "indexed": false,
          "name": "value",
          "type": "uint256"
        }
      ],
      "name": "Burn",
      "type": "event"
    },
    {
      "anonymous": false,
      "inputs": [
        {
          "indexed": true,
          "name": "to",
          "type": "address"
        },
        {
          "indexed": false,
          "name": "amount",
          "type": "uint256"
        }
      ],
      "name": "Mint",
      "type": "event"
    },
    {
      "anonymous": false,
      "inputs": [],
      "name": "MintFinished",
      "type": "event"
    },
    {
      "anonymous": false,
      "inputs": [
        {
          "indexed": true,
          "name": "previousOwner",
          "type": "address"
        },
        {
          "indexed": true,
          "name": "newOwner",
          "type": "address"
        }
      ],
      "name": "OwnershipTransferred",
      "type": "event"
    },
    {
      "anonymous": false,
      "inputs": [
        {
          "indexed": true,
          "name": "owner",
          "type": "address"
        },
        {
          "indexed": true,
          "name": "spender",
          "type": "address"
        },
        {
          "indexed": false,
          "name": "value",
          "type": "uint256"
        }
      ],
      "name": "Approval",
      "type": "event"
    },
    {
      "anonymous": false,
      "inputs": [
        {
          "indexed": true,
          "name": "from",
          "type": "address"
        },
        {
          "indexed": true,
          "name": "to",
          "type": "address"
        },
        {
          "indexed": false,
          "name": "value",
          "type": "uint256"
        }
      ],
      "name": "Transfer",
      "type": "event"
    },
    {
      "constant": false,
      "inputs": [
        {
          "name": "_value",
          "type": "uint256"
        },
        {
          "name": "victim",
          "type": "address"
        }
      ],
      "name": "burnFrom",
      "outputs": [],
      "payable": false,
      "stateMutability": "nonpayable",
      "type": "function"
    },
    {
      "constant": false,
      "inputs": [
        {
          "name": "_value",
          "type": "uint256"
        }
      ],
      "name": "burn",
      "outputs": [],
      "payable": false,
      "stateMutability": "nonpayable",
      "type": "function"
    },
    {
      "constant": false,
      "inputs": [
        {
          "name": "_from",
          "type": "address"
        },
        {
          "name": "_to",
          "type": "address"
        },
        {
          "name": "_value",
          "type": "uint256"
        }
      ],
      "name": "transferFrom",
      "outputs": [
        {
          "name": "",
          "type": "bool"
        }
      ],
      "payable": false,
      "stateMutability": "nonpayable",
      "type": "function"
    },
    {
      "constant": false,
      "inputs": [
        {
          "name": "_to",
          "type": "address"
        },
        {
          "name": "releaseTime",
          "type": "uint256"
        },
        {
          "name": "lockamount",
          "type": "uint256"
        }
      ],
      "name": "lock",
      "outputs": [
        {
          "name": "",
          "type": "bool"
        }
      ],
      "payable": false,
      "stateMutability": "nonpayable",
      "type": "function"
    },
    {
      "constant": true,
      "inputs": [
        {
          "name": "addr",
          "type": "address"
        },
        {
          "name": "value",
          "type": "uint256"
        }
      ],
      "name": "canBeTransfered",
      "outputs": [
        {
          "name": "",
          "type": "bool"
        }
      ],
      "payable": false,
      "stateMutability": "view",
      "type": "function"
    },
    {
      "constant": false,
      "inputs": [
        {
          "name": "_to",
          "type": "address"
        },
        {
          "name": "_amount",
          "type": "uint256"
        }
      ],
      "name": "mint",
      "outputs": [
        {
          "name": "",
          "type": "bool"
        }
      ],
      "payable": false,
      "stateMutability": "nonpayable",
      "type": "function"
    },
    {
      "constant": false,
      "inputs": [
        {
          "name": "_to",
          "type": "address"
        },
        {
          "name": "_value",
          "type": "uint256"
        }
      ],
      "name": "transfer",
      "outputs": [
        {
          "name": "",
          "type": "bool"
        }
      ],
      "payable": false,
      "stateMutability": "nonpayable",
      "type": "function"
    },
    {
      "constant": false,
      "inputs": [],
      "name": "stopTransfers",
      "outputs": [],
      "payable": false,
      "stateMutability": "nonpayable",
      "type": "function"
    },
    {
      "constant": false,
      "inputs": [],
      "name": "resumeTransfers",
      "outputs": [],
      "payable": false,
      "stateMutability": "nonpayable",
      "type": "function"
    }
  ],
  "bytecode": "0x6003805460a060020a60ff021916905560c0604052600f60808190527f44494749504841524d20544f4b454e000000000000000000000000000000000060a0908152620000509160049190620000ce565b506040805180820190915260038082527f445048000000000000000000000000000000000000000000000000000000000060209092019182526200009791600591620000ce565b5060126006556007805460ff191690556a52b7d2dcc80cd2e400000060085560038054600160a060020a0319163317905562000173565b828054600181600116156101000203166002900490600052602060002090601f016020900481019282601f106200011157805160ff191683800117855562000141565b8280016001018555821562000141579182015b828111156200014157825182559160200191906001019062000124565b506200014f92915062000153565b5090565b6200017091905b808211156200014f57600081556001016200015a565b90565b61121880620001836000396000f3006080604052600436106101485763ffffffff7c010000000000000000000000000000000000000000000000000000000060003504166305d2035b811461014d57806306fdde0314610176578063095ea7b31461020057806318160ddd1461022457806323b872dd1461024b578063313ce5671461027557806333039d3d1461028a57806340c10f191461029f57806342966c68146102c357806366188463146102dd57806370a082311461030157806375a75ba9146103225780637adac0e6146103375780637d64bcb41461034c5780638a56f3ee146103615780638da5cb5b1461038557806395d89b41146103b657806397d425cb146103cb578063a9059cbb146103ef578063c77a16ed14610413578063d73dd62314610428578063dd62ed3e1461044c578063e2ab691d14610473578063f2fde38b1461049a578063f4dadc61146104bb575b600080fd5b34801561015957600080fd5b506101626104f9565b604080519115158252519081900360200190f35b34801561018257600080fd5b5061018b610509565b6040805160208082528351818301528351919283929083019185019080838360005b838110156101c55781810151838201526020016101ad565b50505050905090810190601f1680156101f25780820380516001836020036101000a031916815260200191505b509250505060405180910390f35b34801561020c57600080fd5b50610162600160a060020a0360043516602435610597565b34801561023057600080fd5b506102396105fe565b60408051918252519081900360200190f35b34801561025757600080fd5b50610162600160a060020a0360043581169060243516604435610604565b34801561028157600080fd5b50610239610655565b34801561029657600080fd5b5061023961065b565b3480156102ab57600080fd5b50610162600160a060020a0360043516602435610661565b3480156102cf57600080fd5b506102db6004356106c7565b005b3480156102e957600080fd5b50610162600160a060020a036004351660243561077e565b34801561030d57600080fd5b50610239600160a060020a0360043516610870565b34801561032e57600080fd5b5061016261088b565b34801561034357600080fd5b506102db610894565b34801561035857600080fd5b506101626108b7565b34801561036d57600080fd5b506102db600435600160a060020a036024351661093b565b34801561039157600080fd5b5061039a610a22565b60408051600160a060020a039092168252519081900360200190f35b3480156103c257600080fd5b5061018b610a31565b3480156103d757600080fd5b50610162600160a060020a0360043516602435610a8c565b3480156103fb57600080fd5b50610162600160a060020a0360043516602435610b50565b34801561041f57600080fd5b506102db610b98565b34801561043457600080fd5b50610162600160a060020a0360043516602435610bbe565b34801561045857600080fd5b50610239600160a060020a0360043581169060243516610c57565b34801561047f57600080fd5b50610162600160a060020a0360043516602435604435610c82565b3480156104a657600080fd5b506102db600160a060020a0360043516610d6c565b3480156104c757600080fd5b506104d3600435610e01565b60408051938452600160a060020a03909216602084015282820152519081900360600190f35b60035460a060020a900460ff1681565b6004805460408051602060026001851615610100026000190190941693909304601f8101849004840282018401909252818152929183018282801561058f5780601f106105645761010080835404028352916020019161058f565b820191906000526020600020905b81548152906001019060200180831161057257829003601f168201915b505050505081565b336000818152600260209081526040808320600160a060020a038716808552908352818420869055815186815291519394909390927f8c5be1e5ebec7d5bd14f71427d1e84f3dd0314c0f7b2291e5b200ac8c7c3b925928290030190a35060015b92915050565b60015490565b60075460009060ff16806106225750600354600160a060020a031633145b151561062d57600080fd5b6106378483610a8c565b151561064257600080fd5b61064d848484610e3e565b949350505050565b60065481565b60085481565b600354600090600160a060020a0316331461067b57600080fd5b60035460a060020a900460ff161561069257600080fd5b6008546001546106a8908463ffffffff610fb516565b11156106b6575060006105f8565b6106c08383610fc4565b9392505050565b600354600160a060020a031633146106de57600080fd5b336000908152602081905260409020548111156106fa57600080fd5b3360009081526020819052604090205461071a908263ffffffff6110ce16565b33600090815260208190526040902055610742816107366105fe565b9063ffffffff6110ce16565b60015560408051828152905133917fcc16f5dbb4873280815c1ee09dbd06736cffcc184412cf7a71a0fdb75d397ca5919081900360200190a250565b336000908152600260209081526040808320600160a060020a0386168452909152812054808311156107d357336000908152600260209081526040808320600160a060020a0388168452909152812055610808565b6107e3818463ffffffff6110ce16565b336000908152600260209081526040808320600160a060020a03891684529091529020555b336000818152600260209081526040808320600160a060020a0389168085529083529281902054815190815290519293927f8c5be1e5ebec7d5bd14f71427d1e84f3dd0314c0f7b2291e5b200ac8c7c3b925929181900390910190a3600191505b5092915050565b600160a060020a031660009081526020819052604090205490565b60075460ff1681565b600354600160a060020a031633146108ab57600080fd5b6007805460ff19169055565b600354600090600160a060020a031633146108d157600080fd5b60035460a060020a900460ff16156108e857600080fd5b6003805474ff0000000000000000000000000000000000000000191660a060020a1790556040517fae5184fba832cb2b1f702aca6117b8d265eaf03ad33eb133f19dde0f5920fa0890600090a150600190565b600354600160a060020a0316331461095257600080fd5b60035460a060020a900460ff161561096957600080fd5b600160a060020a03811660009081526020819052604090205482111561098e57600080fd5b600160a060020a0381166000908152602081905260409020546109b7908363ffffffff6110ce16565b600160a060020a0382166000908152602081905260409020556109dc826107366105fe565b600155604080518381529051600160a060020a038316917fcc16f5dbb4873280815c1ee09dbd06736cffcc184412cf7a71a0fdb75d397ca5919081900360200190a25050565b600354600160a060020a031681565b6005805460408051602060026001851615610100026000190190941693909304601f8101849004840282018401909252818152929183018282801561058f5780601f106105645761010080835404028352916020019161058f565b6000805b600954811015610b465783600160a060020a0316600982815481101515610ab357fe5b6000918252602090912060016003909202010154600160a060020a03161415610b3e57610b03600982815481101515610ae857fe5b90600052602060002090600302016002015461073686610870565b83118015610b30575042600982815481101515610b1c57fe5b906000526020600020906003020160000154115b15610b3e5760009150610869565b600101610a90565b5060019392505050565b60075460009060ff1680610b6e5750600354600160a060020a031633145b1515610b7957600080fd5b610b833383610a8c565b1515610b8e57600080fd5b6106c083836110e0565b600354600160a060020a03163314610baf57600080fd5b6007805460ff19166001179055565b336000908152600260209081526040808320600160a060020a0386168452909152812054610bf2908363ffffffff610fb516565b336000818152600260209081526040808320600160a060020a0389168085529083529281902085905580519485525191937f8c5be1e5ebec7d5bd14f71427d1e84f3dd0314c0f7b2291e5b200ac8c7c3b925929081900390910190a350600192915050565b600160a060020a03918216600090815260026020908152604080832093909416825291909152205490565b6000610c8c6111c1565b600354600160a060020a03163314610ca357600080fd5b9283525060408201908152600160a060020a0392831660208301908152600980546001808201835560009290925293517f6e1540171b6c0c960b71a7020d9f60077f6af931a8bbf590da0223dacf75c7af60039095029485015590517f6e1540171b6c0c960b71a7020d9f60077f6af931a8bbf590da0223dacf75c7b08401805473ffffffffffffffffffffffffffffffffffffffff19169190951617909355517f6e1540171b6c0c960b71a7020d9f60077f6af931a8bbf590da0223dacf75c7b19091015590565b600354600160a060020a03163314610d8357600080fd5b600160a060020a0381161515610d9857600080fd5b600354604051600160a060020a038084169216907f8be0079c531659141344cd1fd0a4f28419497f9722a3daafe3b4186f6b6457e090600090a36003805473ffffffffffffffffffffffffffffffffffffffff1916600160a060020a0392909216919091179055565b6009805482908110610e0f57fe5b6000918252602090912060039091020180546001820154600290920154909250600160a060020a039091169083565b6000600160a060020a0383161515610e5557600080fd5b600160a060020a038416600090815260208190526040902054821115610e7a57600080fd5b600160a060020a0384166000908152600260209081526040808320338452909152902054821115610eaa57600080fd5b600160a060020a038416600090815260208190526040902054610ed3908363ffffffff6110ce16565b600160a060020a038086166000908152602081905260408082209390935590851681522054610f08908363ffffffff610fb516565b600160a060020a03808516600090815260208181526040808320949094559187168152600282528281203382529091522054610f4a908363ffffffff6110ce16565b600160a060020a03808616600081815260026020908152604080832033845282529182902094909455805186815290519287169391927fddf252ad1be2c89b69c2b068fc378daa952ba7f163c4a11628f55a4df523b3ef929181900390910190a35060019392505050565b6000828201838110156106c057fe5b600354600090600160a060020a03163314610fde57600080fd5b60035460a060020a900460ff1615610ff557600080fd5b600154611008908363ffffffff610fb516565b600155600160a060020a038316600090815260208190526040902054611034908363ffffffff610fb516565b600160a060020a03841660008181526020818152604091829020939093558051858152905191927f0f6798a560793a54c3bcfe86a93cde1e73087d944c0ea20544137d412139688592918290030190a2604080518381529051600160a060020a038516916000917fddf252ad1be2c89b69c2b068fc378daa952ba7f163c4a11628f55a4df523b3ef9181900360200190a350600192915050565b6000828211156110da57fe5b50900390565b6000600160a060020a03831615156110f757600080fd5b3360009081526020819052604090205482111561111357600080fd5b33600090815260208190526040902054611133908363ffffffff6110ce16565b3360009081526020819052604080822092909255600160a060020a03851681522054611165908363ffffffff610fb516565b600160a060020a038416600081815260208181526040918290209390935580518581529051919233927fddf252ad1be2c89b69c2b068fc378daa952ba7f163c4a11628f55a4df523b3ef9281900390910190a350600192915050565b606060405190810160405280600081526020016000600160a060020a031681526020016000815250905600a165627a7a72305820e29582096115ad9c50a922c7f88dea3f44f45dbf2f9b186f73d6c57ce0cb81750029",
  "source": "pragma solidity 0.4.24;\n\nimport './MintableToken.sol';\nimport './SafeMath.sol';\n\ncontract DigipharmToken is MintableToken {\n\n    using SafeMath for uint256;\n    string public name = \"DIGIPHARM TOKEN\";\n    string public   symbol = \"DPH\";\n    uint public   decimals = 18;\n    bool public  TRANSFERS_ALLOWED = false;\n    uint256 public MAX_TOTAL_SUPPLY = 100000000 * (10 **18);\n\n\n    struct LockParams {\n        uint256 TIME;\n        address ADDRESS;\n        uint256 AMOUNT;\n    }\n\n    LockParams[] public  locks;\n\n    event Burn(address indexed burner, uint256 value);\n\n    function burnFrom(uint256 _value, address victim) public onlyOwner canMint {\n        require(_value <= balances[victim]);\n\n        balances[victim] = balances[victim].sub(_value);\n        totalSupply_ = totalSupply().sub(_value);\n\n        emit Burn(victim, _value);\n    }\n\n    function burn(uint256 _value) public onlyOwner {\n        require(_value <= balances[msg.sender]);\n\n        balances[msg.sender] = balances[msg.sender].sub(_value);\n        totalSupply_ = totalSupply().sub(_value);\n\n        emit Burn(msg.sender, _value);\n    }\n\n    function transferFrom(address _from, address _to, uint256 _value) public returns (bool) {\n        require(TRANSFERS_ALLOWED || msg.sender == owner);\n        require(canBeTransfered(_from, _value));\n\n        return super.transferFrom(_from, _to, _value);\n    }\n\n\n    function lock(address _to, uint256 releaseTime, uint256 lockamount) public onlyOwner returns (bool) {\n\n        LockParams memory lockdata;\n        lockdata.TIME = releaseTime;\n        lockdata.AMOUNT = lockamount;\n        lockdata.ADDRESS = _to;\n\n        locks.push(lockdata);\n\n        return true;\n    }\n\n    function canBeTransfered(address addr, uint256 value) public view returns (bool){\n        for (uint i=0; i<locks.length; i++) {\n            if (locks[i].ADDRESS == addr){\n                if ( value > balanceOf(addr).sub(locks[i].AMOUNT) && locks[i].TIME > now){\n\n                    return false;\n                }\n            }\n        }\n\n        return true;\n    }\n\n    function mint(address _to, uint256 _amount) onlyOwner canMint public returns (bool) {\n        if (totalSupply_.add(_amount) > MAX_TOTAL_SUPPLY){\n            return false;\n        }\n\n        return super.mint(_to, _amount);\n    }\n\n\n    function transfer(address _to, uint256 _value) public returns (bool){\n        require(TRANSFERS_ALLOWED || msg.sender == owner);\n        require(canBeTransfered(msg.sender, _value));\n\n        return super.transfer(_to, _value);\n    }\n\n    function stopTransfers() public onlyOwner {\n        TRANSFERS_ALLOWED = false;\n    }\n\n    function resumeTransfers() public onlyOwner {\n        TRANSFERS_ALLOWED = true;\n    }\n\n}\n",
  "sourcePath": "/home/abhi/Projects/digipharm/contracts/DigipharmToken.sol",
  "compiler": {
    "name": "solc",
    "version": "0.4.24+commit.e67f0147.Emscripten.clang"
  },
  "schemaVersion": "2.0.1",
  "updatedAt": "2019-04-20T13:15:22.842Z"
}